{
  "contractName": "Transit",
  "abi": [
    {
      "inputs": [],
      "stateMutability": "nonpayable",
      "type": "constructor"
    },
    {
      "anonymous": false,
      "inputs": [
        {
          "indexed": true,
          "internalType": "address",
          "name": "previousOwner",
          "type": "address"
        },
        {
          "indexed": true,
          "internalType": "address",
          "name": "newOwner",
          "type": "address"
        }
      ],
      "name": "OwnershipTransferred",
      "type": "event"
    },
    {
      "anonymous": false,
      "inputs": [
        {
          "indexed": true,
          "internalType": "bytes32",
          "name": "role",
          "type": "bytes32"
        },
        {
          "indexed": true,
          "internalType": "bytes32",
          "name": "previousAdminRole",
          "type": "bytes32"
        },
        {
          "indexed": true,
          "internalType": "bytes32",
          "name": "newAdminRole",
          "type": "bytes32"
        }
      ],
      "name": "RoleAdminChanged",
      "type": "event"
    },
    {
      "anonymous": false,
      "inputs": [
        {
          "indexed": true,
          "internalType": "bytes32",
          "name": "role",
          "type": "bytes32"
        },
        {
          "indexed": true,
          "internalType": "address",
          "name": "account",
          "type": "address"
        },
        {
          "indexed": true,
          "internalType": "address",
          "name": "sender",
          "type": "address"
        }
      ],
      "name": "RoleGranted",
      "type": "event"
    },
    {
      "anonymous": false,
      "inputs": [
        {
          "indexed": true,
          "internalType": "bytes32",
          "name": "role",
          "type": "bytes32"
        },
        {
          "indexed": true,
          "internalType": "address",
          "name": "account",
          "type": "address"
        },
        {
          "indexed": true,
          "internalType": "address",
          "name": "sender",
          "type": "address"
        }
      ],
      "name": "RoleRevoked",
      "type": "event"
    },
    {
      "anonymous": false,
      "inputs": [
        {
          "indexed": true,
          "internalType": "address",
          "name": "sender",
          "type": "address"
        },
        {
          "indexed": false,
          "internalType": "string",
          "name": "message",
          "type": "string"
        }
      ],
      "name": "Tampered",
      "type": "event"
    },
    {
      "inputs": [],
      "name": "DEFAULT_ADMIN_ROLE",
      "outputs": [
        {
          "internalType": "bytes32",
          "name": "",
          "type": "bytes32"
        }
      ],
      "stateMutability": "view",
      "type": "function",
      "constant": true
    },
    {
      "inputs": [],
      "name": "MANAGER_ROLE",
      "outputs": [
        {
          "internalType": "bytes32",
          "name": "",
          "type": "bytes32"
        }
      ],
      "stateMutability": "view",
      "type": "function",
      "constant": true
    },
    {
      "inputs": [
        {
          "internalType": "bytes32",
          "name": "role",
          "type": "bytes32"
        }
      ],
      "name": "getRoleAdmin",
      "outputs": [
        {
          "internalType": "bytes32",
          "name": "",
          "type": "bytes32"
        }
      ],
      "stateMutability": "view",
      "type": "function",
      "constant": true
    },
    {
      "inputs": [
        {
          "internalType": "bytes32",
          "name": "role",
          "type": "bytes32"
        },
        {
          "internalType": "address",
          "name": "account",
          "type": "address"
        }
      ],
      "name": "grantRole",
      "outputs": [],
      "stateMutability": "nonpayable",
      "type": "function"
    },
    {
      "inputs": [
        {
          "internalType": "bytes32",
          "name": "role",
          "type": "bytes32"
        },
        {
          "internalType": "address",
          "name": "account",
          "type": "address"
        }
      ],
      "name": "hasRole",
      "outputs": [
        {
          "internalType": "bool",
          "name": "",
          "type": "bool"
        }
      ],
      "stateMutability": "view",
      "type": "function",
      "constant": true
    },
    {
      "inputs": [],
      "name": "owner",
      "outputs": [
        {
          "internalType": "address",
          "name": "",
          "type": "address"
        }
      ],
      "stateMutability": "view",
      "type": "function",
      "constant": true
    },
    {
      "inputs": [],
      "name": "renounceOwnership",
      "outputs": [],
      "stateMutability": "nonpayable",
      "type": "function"
    },
    {
      "inputs": [
        {
          "internalType": "bytes32",
          "name": "role",
          "type": "bytes32"
        },
        {
          "internalType": "address",
          "name": "account",
          "type": "address"
        }
      ],
      "name": "renounceRole",
      "outputs": [],
      "stateMutability": "nonpayable",
      "type": "function"
    },
    {
      "inputs": [
        {
          "internalType": "bytes32",
          "name": "role",
          "type": "bytes32"
        },
        {
          "internalType": "address",
          "name": "account",
          "type": "address"
        }
      ],
      "name": "revokeRole",
      "outputs": [],
      "stateMutability": "nonpayable",
      "type": "function"
    },
    {
      "inputs": [
        {
          "internalType": "bytes4",
          "name": "interfaceId",
          "type": "bytes4"
        }
      ],
      "name": "supportsInterface",
      "outputs": [
        {
          "internalType": "bool",
          "name": "",
          "type": "bool"
        }
      ],
      "stateMutability": "view",
      "type": "function",
      "constant": true
    },
    {
      "inputs": [
        {
          "internalType": "address",
          "name": "newOwner",
          "type": "address"
        }
      ],
      "name": "transferOwnership",
      "outputs": [],
      "stateMutability": "nonpayable",
      "type": "function"
    },
    {
      "inputs": [
        {
          "internalType": "address",
          "name": "",
          "type": "address"
        },
        {
          "internalType": "uint256",
          "name": "",
          "type": "uint256"
        }
      ],
      "name": "transitIdsByAddress",
      "outputs": [
        {
          "internalType": "uint256",
          "name": "",
          "type": "uint256"
        }
      ],
      "stateMutability": "view",
      "type": "function",
      "constant": true
    },
    {
      "inputs": [
        {
          "internalType": "uint256",
          "name": "",
          "type": "uint256"
        }
      ],
      "name": "transits",
      "outputs": [
        {
          "internalType": "address",
          "name": "sender",
          "type": "address"
        },
        {
          "internalType": "address",
          "name": "receiver",
          "type": "address"
        },
        {
          "internalType": "uint256",
          "name": "pickupTime",
          "type": "uint256"
        },
        {
          "internalType": "uint256",
          "name": "deliveryTime",
          "type": "uint256"
        },
        {
          "internalType": "enum Transit.transitStatus",
          "name": "status",
          "type": "uint8"
        }
      ],
      "stateMutability": "view",
      "type": "function",
      "constant": true
    },
    {
      "inputs": [
        {
          "internalType": "address",
          "name": "manager",
          "type": "address"
        }
      ],
      "name": "registerManager",
      "outputs": [],
      "stateMutability": "nonpayable",
      "type": "function"
    },
    {
      "inputs": [
        {
          "internalType": "address",
          "name": "manager",
          "type": "address"
        }
      ],
      "name": "removeManager",
      "outputs": [],
      "stateMutability": "nonpayable",
      "type": "function"
    },
    {
      "inputs": [
        {
          "internalType": "address",
          "name": "manager",
          "type": "address"
        }
      ],
      "name": "checkManager",
      "outputs": [
        {
          "internalType": "bool",
          "name": "",
          "type": "bool"
        }
      ],
      "stateMutability": "view",
      "type": "function",
      "constant": true
    },
    {
      "inputs": [
        {
          "internalType": "uint256",
          "name": "_transitId",
          "type": "uint256"
        },
        {
          "internalType": "address",
          "name": "_sender",
          "type": "address"
        },
        {
          "internalType": "address",
          "name": "_receiver",
          "type": "address"
        }
      ],
      "name": "createTransit",
      "outputs": [],
      "stateMutability": "nonpayable",
      "type": "function"
    },
    {
      "inputs": [
        {
          "internalType": "uint256",
          "name": "_transitId",
          "type": "uint256"
        },
        {
          "internalType": "address",
          "name": "_receiver",
          "type": "address"
        }
      ],
      "name": "startTransit",
      "outputs": [],
      "stateMutability": "nonpayable",
      "type": "function"
    },
    {
      "inputs": [
        {
          "internalType": "uint256",
          "name": "_transitId",
          "type": "uint256"
        },
        {
          "internalType": "address",
          "name": "_sender",
          "type": "address"
        }
      ],
      "name": "receiveTransit",
      "outputs": [],
      "stateMutability": "nonpayable",
      "type": "function"
    },
    {
      "inputs": [
        {
          "internalType": "address",
          "name": "_address",
          "type": "address"
        }
      ],
      "name": "getTransitsByAddress",
      "outputs": [
        {
          "components": [
            {
              "internalType": "address",
              "name": "sender",
              "type": "address"
            },
            {
              "internalType": "address",
              "name": "receiver",
              "type": "address"
            },
            {
              "internalType": "uint256",
              "name": "pickupTime",
              "type": "uint256"
            },
            {
              "internalType": "uint256",
              "name": "deliveryTime",
              "type": "uint256"
            },
            {
              "internalType": "enum Transit.transitStatus",
              "name": "status",
              "type": "uint8"
            }
          ],
          "internalType": "struct Transit.Details[]",
          "name": "",
          "type": "tuple[]"
        }
      ],
      "stateMutability": "view",
      "type": "function",
      "constant": true
    },
    {
      "inputs": [
        {
          "internalType": "uint256",
          "name": "_transitID",
          "type": "uint256"
        }
      ],
      "name": "tempTampered",
      "outputs": [],
      "stateMutability": "nonpayable",
      "type": "function"
    },
    {
      "inputs": [
        {
          "internalType": "uint256",
          "name": "_transitID",
          "type": "uint256"
        }
      ],
      "name": "getTransitbyID",
      "outputs": [
        {
          "components": [
            {
              "internalType": "address",
              "name": "sender",
              "type": "address"
            },
            {
              "internalType": "address",
              "name": "receiver",
              "type": "address"
            },
            {
              "internalType": "uint256",
              "name": "pickupTime",
              "type": "uint256"
            },
            {
              "internalType": "uint256",
              "name": "deliveryTime",
              "type": "uint256"
            },
            {
              "internalType": "enum Transit.transitStatus",
              "name": "status",
              "type": "uint8"
            }
          ],
          "internalType": "struct Transit.Details",
          "name": "",
          "type": "tuple"
        }
      ],
      "stateMutability": "view",
      "type": "function",
      "constant": true
    }
  ],
  "bytecode": "0x60806040523480156200001157600080fd5b5062000032620000266200004d60201b60201c565b6200005560201b60201c565b620000476000801b336200011960201b60201c565b62000275565b600033905090565b60008060009054906101000a900473ffffffffffffffffffffffffffffffffffffffff169050816000806101000a81548173ffffffffffffffffffffffffffffffffffffffff021916908373ffffffffffffffffffffffffffffffffffffffff1602179055508173ffffffffffffffffffffffffffffffffffffffff168173ffffffffffffffffffffffffffffffffffffffff167f8be0079c531659141344cd1fd0a4f28419497f9722a3daafe3b4186f6b6457e060405160405180910390a35050565b6200012b82826200020a60201b60201c565b6200020657600180600084815260200190815260200160002060000160008373ffffffffffffffffffffffffffffffffffffffff1673ffffffffffffffffffffffffffffffffffffffff16815260200190815260200160002060006101000a81548160ff021916908315150217905550620001ab6200004d60201b60201c565b73ffffffffffffffffffffffffffffffffffffffff168173ffffffffffffffffffffffffffffffffffffffff16837f2f8788117e7eff1d82e926ec794901d17c78024a50270940304540a733656f0d60405160405180910390a45b5050565b60006001600084815260200190815260200160002060000160008373ffffffffffffffffffffffffffffffffffffffff1673ffffffffffffffffffffffffffffffffffffffff16815260200190815260200160002060009054906101000a900460ff16905092915050565b61267380620002856000396000f3fe608060405234801561001057600080fd5b50600436106101415760003560e01c806391d14854116100b8578063d547741f1161007c578063d547741f1461035c578063de80d54014610378578063dea047ff146103ac578063ec26019d146103dc578063ec87621c1461040c578063f2fde38b1461042a57610141565b806391d14854146102a6578063a217fddf146102d6578063a7638b0d146102f4578063ac18de4314610310578063bc63af5d1461032c57610141565b806336568abe1161010a57806336568abe1461020e57806337e90b151461022a57806338e93ddd146102465780636fab586014610262578063715018a61461027e5780638da5cb5b1461028857610141565b806283a8741461014657806301ffc9a714610176578063248a9ca3146101a65780632b2da97e146101d65780632f2ff15d146101f2575b600080fd5b610160600480360381019061015b9190611a0d565b610446565b60405161016d9190611a5c565b60405180910390f35b610190600480360381019061018b9190611acf565b610477565b60405161019d9190611b17565b60405180910390f35b6101c060048036038101906101bb9190611b68565b6104f1565b6040516101cd9190611ba4565b60405180910390f35b6101f060048036038101906101eb9190611bbf565b610511565b005b61020c60048036038101906102079190611bec565b610546565b005b61022860048036038101906102239190611bec565b610567565b005b610244600480360381019061023f9190611c2c565b6105ea565b005b610260600480360381019061025b9190611c7f565b61080b565b005b61027c60048036038101906102779190611c7f565b6109c2565b005b610286610b79565b005b610290610b8d565b60405161029d9190611cce565b60405180910390f35b6102c060048036038101906102bb9190611bec565b610bb6565b6040516102cd9190611b17565b60405180910390f35b6102de610c21565b6040516102eb9190611ba4565b60405180910390f35b61030e60048036038101906103099190611ce9565b610c28565b005b61032a60048036038101906103259190611bbf565b610d3e565b005b61034660048036038101906103419190611bbf565b610d73565b6040516103539190611ec2565b60405180910390f35b61037660048036038101906103719190611bec565b610fdb565b005b610392600480360381019061038d9190611ce9565b610ffc565b6040516103a3959493929190611ef3565b60405180910390f35b6103c660048036038101906103c19190611ce9565b61107f565b6040516103d39190611fae565b60405180910390f35b6103f660048036038101906103f19190611bbf565b6111ad565b6040516104039190611b17565b60405180910390f35b6104146111e8565b6040516104219190611ba4565b60405180910390f35b610444600480360381019061043f9190611bbf565b61120c565b005b6003602052816000526040600020818154811061046257600080fd5b90600052602060002001600091509150505481565b60007f7965db0b000000000000000000000000000000000000000000000000000000007bffffffffffffffffffffffffffffffffffffffffffffffffffffffff1916827bffffffffffffffffffffffffffffffffffffffffffffffffffffffff191614806104ea57506104e98261128f565b5b9050919050565b600060016000838152602001908152602001600020600101549050919050565b6105196112f9565b6105437f241ecf16d79d0f8dbfb92cbc07fe17840425976cf0667f022fe9877caa831b0882610546565b50565b61054f826104f1565b61055881611377565b610562838361138b565b505050565b61056f61146b565b73ffffffffffffffffffffffffffffffffffffffff168173ffffffffffffffffffffffffffffffffffffffff16146105dc576040517f08c379a00000000000000000000000000000000000000000000000000000000081526004016105d39061204c565b60405180910390fd5b6105e68282611473565b5050565b6040518060a001604052808373ffffffffffffffffffffffffffffffffffffffff1681526020018273ffffffffffffffffffffffffffffffffffffffff16815260200160008152602001600081526020016000600481111561064f5761064e611d60565b5b8152506002600085815260200190815260200160002060008201518160000160006101000a81548173ffffffffffffffffffffffffffffffffffffffff021916908373ffffffffffffffffffffffffffffffffffffffff16021790555060208201518160010160006101000a81548173ffffffffffffffffffffffffffffffffffffffff021916908373ffffffffffffffffffffffffffffffffffffffff160217905550604082015181600201556060820151816003015560808201518160040160006101000a81548160ff0219169083600481111561073257610731611d60565b5b0217905550905050600360008373ffffffffffffffffffffffffffffffffffffffff1673ffffffffffffffffffffffffffffffffffffffff168152602001908152602001600020839080600181540180825580915050600190039060005260206000200160009091909190915055600360008273ffffffffffffffffffffffffffffffffffffffff1673ffffffffffffffffffffffffffffffffffffffff168152602001908152602001600020839080600181540180825580915050600190039060005260206000200160009091909190915055505050565b60006002600084815260200190815260200160002090503373ffffffffffffffffffffffffffffffffffffffff168160000160009054906101000a900473ffffffffffffffffffffffffffffffffffffffff1673ffffffffffffffffffffffffffffffffffffffff161480156108d057508173ffffffffffffffffffffffffffffffffffffffff168160010160009054906101000a900473ffffffffffffffffffffffffffffffffffffffff1673ffffffffffffffffffffffffffffffffffffffff16145b61090f576040517f08c379a0000000000000000000000000000000000000000000000000000000008152600401610906906120b8565b60405180910390fd5b6000600481111561092357610922611d60565b5b8160040160009054906101000a900460ff16600481111561094757610946611d60565b5b14610987576040517f08c379a000000000000000000000000000000000000000000000000000000000815260040161097e90612124565b60405180910390fd5b60018160040160006101000a81548160ff021916908360048111156109af576109ae611d60565b5b0217905550428160020181905550505050565b60006002600084815260200190815260200160002090508173ffffffffffffffffffffffffffffffffffffffff168160000160009054906101000a900473ffffffffffffffffffffffffffffffffffffffff1673ffffffffffffffffffffffffffffffffffffffff16148015610a8757503373ffffffffffffffffffffffffffffffffffffffff168160010160009054906101000a900473ffffffffffffffffffffffffffffffffffffffff1673ffffffffffffffffffffffffffffffffffffffff16145b610ac6576040517f08c379a0000000000000000000000000000000000000000000000000000000008152600401610abd906120b8565b60405180910390fd5b60016004811115610ada57610ad9611d60565b5b8160040160009054906101000a900460ff166004811115610afe57610afd611d60565b5b14610b3e576040517f08c379a0000000000000000000000000000000000000000000000000000000008152600401610b3590612124565b60405180910390fd5b60028160040160006101000a81548160ff02191690836004811115610b6657610b65611d60565b5b0217905550428160030181905550505050565b610b816112f9565b610b8b6000611555565b565b60008060009054906101000a900473ffffffffffffffffffffffffffffffffffffffff16905090565b60006001600084815260200190815260200160002060000160008373ffffffffffffffffffffffffffffffffffffffff1673ffffffffffffffffffffffffffffffffffffffff16815260200190815260200160002060009054906101000a900460ff16905092915050565b6000801b81565b600060026000838152602001908152602001600020905060016004811115610c5357610c52611d60565b5b8160040160009054906101000a900460ff166004811115610c7757610c76611d60565b5b1480610cb8575060026004811115610c9257610c91611d60565b5b8160040160009054906101000a900460ff166004811115610cb657610cb5611d60565b5b145b610cc157600080fd5b60048160040160006101000a81548160ff02191690836004811115610ce957610ce8611d60565b5b02179055503373ffffffffffffffffffffffffffffffffffffffff167f572f38326c0f991573fca9ec611774793ead7d7ad10d3250a0db6fb12aa78d32604051610d3290612190565b60405180910390a25050565b610d466112f9565b610d707f241ecf16d79d0f8dbfb92cbc07fe17840425976cf0667f022fe9877caa831b0882610fdb565b50565b60606000600360008473ffffffffffffffffffffffffffffffffffffffff1673ffffffffffffffffffffffffffffffffffffffff168152602001908152602001600020805480602002602001604051908101604052809291908181526020018280548015610e0057602002820191906000526020600020905b815481526020019060010190808311610dec575b505050505090506000815167ffffffffffffffff811115610e2457610e236121b0565b5b604051908082528060200260200182016040528015610e5d57816020015b610e4a611907565b815260200190600190039081610e425790505b50905060005b8251811015610fd05760026000848381518110610e8357610e826121df565b5b602002602001015181526020019081526020016000206040518060a00160405290816000820160009054906101000a900473ffffffffffffffffffffffffffffffffffffffff1673ffffffffffffffffffffffffffffffffffffffff1673ffffffffffffffffffffffffffffffffffffffff1681526020016001820160009054906101000a900473ffffffffffffffffffffffffffffffffffffffff1673ffffffffffffffffffffffffffffffffffffffff1673ffffffffffffffffffffffffffffffffffffffff16815260200160028201548152602001600382015481526020016004820160009054906101000a900460ff166004811115610f8957610f88611d60565b5b6004811115610f9b57610f9a611d60565b5b81525050828281518110610fb257610fb16121df565b5b60200260200101819052508080610fc89061223d565b915050610e63565b508092505050919050565b610fe4826104f1565b610fed81611377565b610ff78383611473565b505050565b60026020528060005260406000206000915090508060000160009054906101000a900473ffffffffffffffffffffffffffffffffffffffff16908060010160009054906101000a900473ffffffffffffffffffffffffffffffffffffffff16908060020154908060030154908060040160009054906101000a900460ff16905085565b611087611907565b6000600260008481526020019081526020016000209050806040518060a00160405290816000820160009054906101000a900473ffffffffffffffffffffffffffffffffffffffff1673ffffffffffffffffffffffffffffffffffffffff1673ffffffffffffffffffffffffffffffffffffffff1681526020016001820160009054906101000a900473ffffffffffffffffffffffffffffffffffffffff1673ffffffffffffffffffffffffffffffffffffffff1673ffffffffffffffffffffffffffffffffffffffff16815260200160028201548152602001600382015481526020016004820160009054906101000a900460ff16600481111561118f5761118e611d60565b5b60048111156111a1576111a0611d60565b5b81525050915050919050565b60006111b76112f9565b6111e17f241ecf16d79d0f8dbfb92cbc07fe17840425976cf0667f022fe9877caa831b0883610bb6565b9050919050565b7f241ecf16d79d0f8dbfb92cbc07fe17840425976cf0667f022fe9877caa831b0881565b6112146112f9565b600073ffffffffffffffffffffffffffffffffffffffff168173ffffffffffffffffffffffffffffffffffffffff1603611283576040517f08c379a000000000000000000000000000000000000000000000000000000000815260040161127a906122f7565b60405180910390fd5b61128c81611555565b50565b60007f01ffc9a7000000000000000000000000000000000000000000000000000000007bffffffffffffffffffffffffffffffffffffffffffffffffffffffff1916827bffffffffffffffffffffffffffffffffffffffffffffffffffffffff1916149050919050565b61130161146b565b73ffffffffffffffffffffffffffffffffffffffff1661131f610b8d565b73ffffffffffffffffffffffffffffffffffffffff1614611375576040517f08c379a000000000000000000000000000000000000000000000000000000000815260040161136c90612363565b60405180910390fd5b565b6113888161138361146b565b611619565b50565b6113958282610bb6565b61146757600180600084815260200190815260200160002060000160008373ffffffffffffffffffffffffffffffffffffffff1673ffffffffffffffffffffffffffffffffffffffff16815260200190815260200160002060006101000a81548160ff02191690831515021790555061140c61146b565b73ffffffffffffffffffffffffffffffffffffffff168173ffffffffffffffffffffffffffffffffffffffff16837f2f8788117e7eff1d82e926ec794901d17c78024a50270940304540a733656f0d60405160405180910390a45b5050565b600033905090565b61147d8282610bb6565b156115515760006001600084815260200190815260200160002060000160008373ffffffffffffffffffffffffffffffffffffffff1673ffffffffffffffffffffffffffffffffffffffff16815260200190815260200160002060006101000a81548160ff0219169083151502179055506114f661146b565b73ffffffffffffffffffffffffffffffffffffffff168173ffffffffffffffffffffffffffffffffffffffff16837ff6391f5c32d9c69d2a47ea670b442974b53935d1edc7fd64eb21e047a839171b60405160405180910390a45b5050565b60008060009054906101000a900473ffffffffffffffffffffffffffffffffffffffff169050816000806101000a81548173ffffffffffffffffffffffffffffffffffffffff021916908373ffffffffffffffffffffffffffffffffffffffff1602179055508173ffffffffffffffffffffffffffffffffffffffff168173ffffffffffffffffffffffffffffffffffffffff167f8be0079c531659141344cd1fd0a4f28419497f9722a3daafe3b4186f6b6457e060405160405180910390a35050565b6116238282610bb6565b61169a576116308161169e565b61163e8360001c60206116cb565b60405160200161164f92919061248c565b6040516020818303038152906040526040517f08c379a00000000000000000000000000000000000000000000000000000000081526004016116919190612510565b60405180910390fd5b5050565b60606116c48273ffffffffffffffffffffffffffffffffffffffff16601460ff166116cb565b9050919050565b6060600060028360026116de9190612532565b6116e89190612574565b67ffffffffffffffff811115611701576117006121b0565b5b6040519080825280601f01601f1916602001820160405280156117335781602001600182028036833780820191505090505b5090507f30000000000000000000000000000000000000000000000000000000000000008160008151811061176b5761176a6121df565b5b60200101907effffffffffffffffffffffffffffffffffffffffffffffffffffffffffffff1916908160001a9053507f7800000000000000000000000000000000000000000000000000000000000000816001815181106117cf576117ce6121df565b5b60200101907effffffffffffffffffffffffffffffffffffffffffffffffffffffffffffff1916908160001a9053506000600184600261180f9190612532565b6118199190612574565b90505b60018111156118b9577f3031323334353637383961626364656600000000000000000000000000000000600f86166010811061185b5761185a6121df565b5b1a60f81b828281518110611872576118716121df565b5b60200101907effffffffffffffffffffffffffffffffffffffffffffffffffffffffffffff1916908160001a905350600485901c9450806118b2906125a8565b905061181c565b50600084146118fd576040517f08c379a00000000000000000000000000000000000000000000000000000000081526004016118f49061261d565b60405180910390fd5b8091505092915050565b6040518060a00160405280600073ffffffffffffffffffffffffffffffffffffffff168152602001600073ffffffffffffffffffffffffffffffffffffffff16815260200160008152602001600081526020016000600481111561196e5761196d611d60565b5b81525090565b600080fd5b600073ffffffffffffffffffffffffffffffffffffffff82169050919050565b60006119a482611979565b9050919050565b6119b481611999565b81146119bf57600080fd5b50565b6000813590506119d1816119ab565b92915050565b6000819050919050565b6119ea816119d7565b81146119f557600080fd5b50565b600081359050611a07816119e1565b92915050565b60008060408385031215611a2457611a23611974565b5b6000611a32858286016119c2565b9250506020611a43858286016119f8565b9150509250929050565b611a56816119d7565b82525050565b6000602082019050611a716000830184611a4d565b92915050565b60007fffffffff0000000000000000000000000000000000000000000000000000000082169050919050565b611aac81611a77565b8114611ab757600080fd5b50565b600081359050611ac981611aa3565b92915050565b600060208284031215611ae557611ae4611974565b5b6000611af384828501611aba565b91505092915050565b60008115159050919050565b611b1181611afc565b82525050565b6000602082019050611b2c6000830184611b08565b92915050565b6000819050919050565b611b4581611b32565b8114611b5057600080fd5b50565b600081359050611b6281611b3c565b92915050565b600060208284031215611b7e57611b7d611974565b5b6000611b8c84828501611b53565b91505092915050565b611b9e81611b32565b82525050565b6000602082019050611bb96000830184611b95565b92915050565b600060208284031215611bd557611bd4611974565b5b6000611be3848285016119c2565b91505092915050565b60008060408385031215611c0357611c02611974565b5b6000611c1185828601611b53565b9250506020611c22858286016119c2565b9150509250929050565b600080600060608486031215611c4557611c44611974565b5b6000611c53868287016119f8565b9350506020611c64868287016119c2565b9250506040611c75868287016119c2565b9150509250925092565b60008060408385031215611c9657611c95611974565b5b6000611ca4858286016119f8565b9250506020611cb5858286016119c2565b9150509250929050565b611cc881611999565b82525050565b6000602082019050611ce36000830184611cbf565b92915050565b600060208284031215611cff57611cfe611974565b5b6000611d0d848285016119f8565b91505092915050565b600081519050919050565b600082825260208201905092915050565b6000819050602082019050919050565b611d4b81611999565b82525050565b611d5a816119d7565b82525050565b7f4e487b7100000000000000000000000000000000000000000000000000000000600052602160045260246000fd5b60058110611da057611d9f611d60565b5b50565b6000819050611db182611d8f565b919050565b6000611dc182611da3565b9050919050565b611dd181611db6565b82525050565b60a082016000820151611ded6000850182611d42565b506020820151611e006020850182611d42565b506040820151611e136040850182611d51565b506060820151611e266060850182611d51565b506080820151611e396080850182611dc8565b50505050565b6000611e4b8383611dd7565b60a08301905092915050565b6000602082019050919050565b6000611e6f82611d16565b611e798185611d21565b9350611e8483611d32565b8060005b83811015611eb5578151611e9c8882611e3f565b9750611ea783611e57565b925050600181019050611e88565b5085935050505092915050565b60006020820190508181036000830152611edc8184611e64565b905092915050565b611eed81611db6565b82525050565b600060a082019050611f086000830188611cbf565b611f156020830187611cbf565b611f226040830186611a4d565b611f2f6060830185611a4d565b611f3c6080830184611ee4565b9695505050505050565b60a082016000820151611f5c6000850182611d42565b506020820151611f6f6020850182611d42565b506040820151611f826040850182611d51565b506060820151611f956060850182611d51565b506080820151611fa86080850182611dc8565b50505050565b600060a082019050611fc36000830184611f46565b92915050565b600082825260208201905092915050565b7f416363657373436f6e74726f6c3a2063616e206f6e6c792072656e6f756e636560008201527f20726f6c657320666f722073656c660000000000000000000000000000000000602082015250565b6000612036602f83611fc9565b915061204182611fda565b604082019050919050565b6000602082019050818103600083015261206581612029565b9050919050565b7f496e76616c69642073656e646572206f72207265636569766572000000000000600082015250565b60006120a2601a83611fc9565b91506120ad8261206c565b602082019050919050565b600060208201905081810360008301526120d181612095565b9050919050565b7f496e76616c6964207472616e7369742073746174757300000000000000000000600082015250565b600061210e601683611fc9565b9150612119826120d8565b602082019050919050565b6000602082019050818103600083015261213d81612101565b9050919050565b7f54414d5045524544000000000000000000000000000000000000000000000000600082015250565b600061217a600883611fc9565b915061218582612144565b602082019050919050565b600060208201905081810360008301526121a98161216d565b9050919050565b7f4e487b7100000000000000000000000000000000000000000000000000000000600052604160045260246000fd5b7f4e487b7100000000000000000000000000000000000000000000000000000000600052603260045260246000fd5b7f4e487b7100000000000000000000000000000000000000000000000000000000600052601160045260246000fd5b6000612248826119d7565b91507fffffffffffffffffffffffffffffffffffffffffffffffffffffffffffffffff820361227a5761227961220e565b5b600182019050919050565b7f4f776e61626c653a206e6577206f776e657220697320746865207a65726f206160008201527f6464726573730000000000000000000000000000000000000000000000000000602082015250565b60006122e1602683611fc9565b91506122ec82612285565b604082019050919050565b60006020820190508181036000830152612310816122d4565b9050919050565b7f4f776e61626c653a2063616c6c6572206973206e6f7420746865206f776e6572600082015250565b600061234d602083611fc9565b915061235882612317565b602082019050919050565b6000602082019050818103600083015261237c81612340565b9050919050565b600081905092915050565b7f416363657373436f6e74726f6c3a206163636f756e7420000000000000000000600082015250565b60006123c4601783612383565b91506123cf8261238e565b601782019050919050565b600081519050919050565b60005b838110156124035780820151818401526020810190506123e8565b60008484015250505050565b600061241a826123da565b6124248185612383565b93506124348185602086016123e5565b80840191505092915050565b7f206973206d697373696e6720726f6c6520000000000000000000000000000000600082015250565b6000612476601183612383565b915061248182612440565b601182019050919050565b6000612497826123b7565b91506124a3828561240f565b91506124ae82612469565b91506124ba828461240f565b91508190509392505050565b6000601f19601f8301169050919050565b60006124e2826123da565b6124ec8185611fc9565b93506124fc8185602086016123e5565b612505816124c6565b840191505092915050565b6000602082019050818103600083015261252a81846124d7565b905092915050565b600061253d826119d7565b9150612548836119d7565b9250828202612556816119d7565b9150828204841483151761256d5761256c61220e565b5b5092915050565b600061257f826119d7565b915061258a836119d7565b92508282019050808211156125a2576125a161220e565b5b92915050565b60006125b3826119d7565b9150600082036125c6576125c561220e565b5b600182039050919050565b7f537472696e67733a20686578206c656e67746820696e73756666696369656e74600082015250565b6000612607602083611fc9565b9150612612826125d1565b602082019050919050565b60006020820190508181036000830152612636816125fa565b905091905056fea2646970667358221220f353c5a675ca125047455c3f42d8f12d5940450ba096ac0a16c333f9dcf2241264736f6c63430008130033",
  "immutableReferences": {},
  "source": "// SPDX-License-Identifier: MIT\r\npragma solidity 0.8.19;\r\n\r\nimport \"@openzeppelin/contracts/access/AccessControl.sol\";\r\nimport \"@openzeppelin/contracts/access/Ownable.sol\";\r\n\r\ncontract Transit is Ownable, AccessControl {\r\n    bytes32 public constant MANAGER_ROLE = keccak256(\"MANAGER_ROLE\");\r\n\r\n    constructor() Ownable() {\r\n        _grantRole(DEFAULT_ADMIN_ROLE, msg.sender);\r\n    }\r\n\r\n    enum transitStatus {\r\n        PENDING,\r\n        IN_TRANSIT,\r\n        RECEIVED,\r\n        RECEIVED_FINAL,\r\n        TAMPERED\r\n    }\r\n\r\n    event Tampered(address indexed sender, string message);\r\n\r\n    struct Details {\r\n        address sender;\r\n        address receiver;\r\n        uint pickupTime;\r\n        uint deliveryTime;\r\n        transitStatus status;\r\n    }\r\n\r\n    mapping(uint => Details) public transits;\r\n    mapping(address => uint[]) public transitIdsByAddress;\r\n    function registerManager(address manager) public onlyOwner {\r\n        grantRole(MANAGER_ROLE, manager);\r\n    }\r\n\r\n    function removeManager(address manager) public onlyOwner {\r\n        revokeRole(MANAGER_ROLE, manager);\r\n    }\r\n\r\n    function checkManager(\r\n        address manager\r\n    ) public view onlyOwner returns (bool) {\r\n        return hasRole(MANAGER_ROLE, manager);\r\n    }\r\n    function createTransit(uint _transitId, address _sender, address _receiver) external {\r\n        transits[_transitId] = Details(_sender, _receiver, 0, 0, transitStatus.PENDING);\r\n        transitIdsByAddress[_sender].push(_transitId);\r\n        transitIdsByAddress[_receiver].push(_transitId);\r\n    }\r\n\r\n    function startTransit(uint _transitId, address _receiver) external {\r\n        Details storage detail = transits[_transitId];\r\n        require(detail.sender == msg.sender && detail.receiver == _receiver, \"Invalid sender or receiver\");\r\n        require(detail.status == transitStatus.PENDING, \"Invalid transit status\");\r\n        detail.status = transitStatus.IN_TRANSIT;\r\n        detail.pickupTime = block.timestamp;\r\n    }\r\n\r\n    function receiveTransit(uint _transitId, address _sender) external {\r\n        Details storage detail = transits[_transitId];\r\n        require(detail.sender == _sender && detail.receiver == msg.sender, \"Invalid sender or receiver\");\r\n        require(detail.status == transitStatus.IN_TRANSIT, \"Invalid transit status\");\r\n        detail.status = transitStatus.RECEIVED;\r\n        detail.deliveryTime = block.timestamp;\r\n    }\r\n\r\n    function getTransitsByAddress(address _address) public view returns (Details[] memory) {\r\n        uint[] memory transitIds = transitIdsByAddress[_address];\r\n        Details[] memory result = new Details[](transitIds.length);\r\n        \r\n        for (uint i = 0; i < transitIds.length; i++) {\r\n            result[i] = transits[transitIds[i]];\r\n        }\r\n        \r\n        return result;\r\n    }\r\n\r\n    function tempTampered(uint _transitID) external {\r\n        Details storage detail = transits[_transitID];\r\n        require(detail.status == transitStatus.IN_TRANSIT || detail.status == transitStatus.RECEIVED);\r\n        detail.status = transitStatus.TAMPERED;\r\n        emit Tampered(msg.sender, \"TAMPERED\");\r\n    }\r\n\r\n    function getTransitbyID(uint _transitID) public view returns (Details memory) {\r\n        Details storage detail = transits[_transitID];\r\n        return detail;\r\n    }\r\n}\r\n",
  "sourcePath": "C:\\Users\\Hp\\Projects\\blockchain\\AccessControl\\contracts\\access.sol",
  "compiler": {
    "name": "solc",
    "version": "0.8.19+commit.7dd6d404.Emscripten.clang"
  },
  "schemaVersion": "3.4.16",
  "updatedAt": "2024-04-23T22:37:14.084Z",
  "networkType": "ethereum",
  "devdoc": {
    "events": {
      "RoleAdminChanged(bytes32,bytes32,bytes32)": {
        "details": "Emitted when `newAdminRole` is set as ``role``'s admin role, replacing `previousAdminRole` `DEFAULT_ADMIN_ROLE` is the starting admin for all roles, despite {RoleAdminChanged} not being emitted signaling this. _Available since v3.1._"
      },
      "RoleGranted(bytes32,address,address)": {
        "details": "Emitted when `account` is granted `role`. `sender` is the account that originated the contract call, an admin role bearer except when using {AccessControl-_setupRole}."
      },
      "RoleRevoked(bytes32,address,address)": {
        "details": "Emitted when `account` is revoked `role`. `sender` is the account that originated the contract call:   - if using `revokeRole`, it is the admin role bearer   - if using `renounceRole`, it is the role bearer (i.e. `account`)"
      }
    },
    "kind": "dev",
    "methods": {
      "getRoleAdmin(bytes32)": {
        "details": "Returns the admin role that controls `role`. See {grantRole} and {revokeRole}. To change a role's admin, use {_setRoleAdmin}."
      },
      "grantRole(bytes32,address)": {
        "details": "Grants `role` to `account`. If `account` had not been already granted `role`, emits a {RoleGranted} event. Requirements: - the caller must have ``role``'s admin role. May emit a {RoleGranted} event."
      },
      "hasRole(bytes32,address)": {
        "details": "Returns `true` if `account` has been granted `role`."
      },
      "owner()": {
        "details": "Returns the address of the current owner."
      },
      "renounceOwnership()": {
        "details": "Leaves the contract without owner. It will not be possible to call `onlyOwner` functions. Can only be called by the current owner. NOTE: Renouncing ownership will leave the contract without an owner, thereby disabling any functionality that is only available to the owner."
      },
      "renounceRole(bytes32,address)": {
        "details": "Revokes `role` from the calling account. Roles are often managed via {grantRole} and {revokeRole}: this function's purpose is to provide a mechanism for accounts to lose their privileges if they are compromised (such as when a trusted device is misplaced). If the calling account had been revoked `role`, emits a {RoleRevoked} event. Requirements: - the caller must be `account`. May emit a {RoleRevoked} event."
      },
      "revokeRole(bytes32,address)": {
        "details": "Revokes `role` from `account`. If `account` had been granted `role`, emits a {RoleRevoked} event. Requirements: - the caller must have ``role``'s admin role. May emit a {RoleRevoked} event."
      },
      "supportsInterface(bytes4)": {
        "details": "See {IERC165-supportsInterface}."
      },
      "transferOwnership(address)": {
        "details": "Transfers ownership of the contract to a new account (`newOwner`). Can only be called by the current owner."
      }
    },
    "version": 1
  },
  "userdoc": {
    "kind": "user",
    "methods": {},
    "version": 1
  }
}